{
  "_format": "hh-sol-artifact-1",
  "contractName": "ElectraToken",
  "sourceName": "contracts/ElectraToken.sol",
  "abi": [
    {
      "inputs": [],
      "stateMutability": "nonpayable",
      "type": "constructor"
    },
    {
      "anonymous": false,
      "inputs": [
        {
          "indexed": true,
          "internalType": "address",
          "name": "owner",
          "type": "address"
        },
        {
          "indexed": true,
          "internalType": "address",
          "name": "spender",
          "type": "address"
        },
        {
          "indexed": false,
          "internalType": "uint256",
          "name": "value",
          "type": "uint256"
        }
      ],
      "name": "Approval",
      "type": "event"
    },
    {
      "anonymous": false,
      "inputs": [
        {
          "indexed": true,
          "internalType": "address",
          "name": "delegator",
          "type": "address"
        },
        {
          "indexed": true,
          "internalType": "address",
          "name": "fromDelegate",
          "type": "address"
        },
        {
          "indexed": true,
          "internalType": "address",
          "name": "toDelegate",
          "type": "address"
        }
      ],
      "name": "DelegateChanged",
      "type": "event"
    },
    {
      "anonymous": false,
      "inputs": [
        {
          "indexed": true,
          "internalType": "address",
          "name": "delegate",
          "type": "address"
        },
        {
          "indexed": false,
          "internalType": "uint256",
          "name": "previousBalance",
          "type": "uint256"
        },
        {
          "indexed": false,
          "internalType": "uint256",
          "name": "newBalance",
          "type": "uint256"
        }
      ],
      "name": "DelegateVotesChanged",
      "type": "event"
    },
    {
      "anonymous": false,
      "inputs": [
        {
          "indexed": true,
          "internalType": "address",
          "name": "from",
          "type": "address"
        },
        {
          "indexed": true,
          "internalType": "address",
          "name": "to",
          "type": "address"
        },
        {
          "indexed": false,
          "internalType": "uint256",
          "name": "value",
          "type": "uint256"
        }
      ],
      "name": "Transfer",
      "type": "event"
    },
    {
      "inputs": [],
      "name": "DOMAIN_SEPARATOR",
      "outputs": [
        {
          "internalType": "bytes32",
          "name": "",
          "type": "bytes32"
        }
      ],
      "stateMutability": "view",
      "type": "function"
    },
    {
      "inputs": [
        {
          "internalType": "address",
          "name": "owner",
          "type": "address"
        },
        {
          "internalType": "address",
          "name": "spender",
          "type": "address"
        }
      ],
      "name": "allowance",
      "outputs": [
        {
          "internalType": "uint256",
          "name": "",
          "type": "uint256"
        }
      ],
      "stateMutability": "view",
      "type": "function"
    },
    {
      "inputs": [
        {
          "internalType": "address",
          "name": "spender",
          "type": "address"
        },
        {
          "internalType": "uint256",
          "name": "amount",
          "type": "uint256"
        }
      ],
      "name": "approve",
      "outputs": [
        {
          "internalType": "bool",
          "name": "",
          "type": "bool"
        }
      ],
      "stateMutability": "nonpayable",
      "type": "function"
    },
    {
      "inputs": [
        {
          "internalType": "address",
          "name": "account",
          "type": "address"
        }
      ],
      "name": "balanceOf",
      "outputs": [
        {
          "internalType": "uint256",
          "name": "",
          "type": "uint256"
        }
      ],
      "stateMutability": "view",
      "type": "function"
    },
    {
      "inputs": [
        {
          "internalType": "address",
          "name": "account",
          "type": "address"
        },
        {
          "internalType": "uint32",
          "name": "pos",
          "type": "uint32"
        }
      ],
      "name": "checkpoints",
      "outputs": [
        {
          "components": [
            {
              "internalType": "uint32",
              "name": "fromBlock",
              "type": "uint32"
            },
            {
              "internalType": "uint224",
              "name": "votes",
              "type": "uint224"
            }
          ],
          "internalType": "struct ERC20Votes.Checkpoint",
          "name": "",
          "type": "tuple"
        }
      ],
      "stateMutability": "view",
      "type": "function"
    },
    {
      "inputs": [],
      "name": "decimals",
      "outputs": [
        {
          "internalType": "uint8",
          "name": "",
          "type": "uint8"
        }
      ],
      "stateMutability": "view",
      "type": "function"
    },
    {
      "inputs": [
        {
          "internalType": "address",
          "name": "spender",
          "type": "address"
        },
        {
          "internalType": "uint256",
          "name": "subtractedValue",
          "type": "uint256"
        }
      ],
      "name": "decreaseAllowance",
      "outputs": [
        {
          "internalType": "bool",
          "name": "",
          "type": "bool"
        }
      ],
      "stateMutability": "nonpayable",
      "type": "function"
    },
    {
      "inputs": [
        {
          "internalType": "address",
          "name": "delegatee",
          "type": "address"
        }
      ],
      "name": "delegate",
      "outputs": [],
      "stateMutability": "nonpayable",
      "type": "function"
    },
    {
      "inputs": [
        {
          "internalType": "address",
          "name": "delegatee",
          "type": "address"
        },
        {
          "internalType": "uint256",
          "name": "nonce",
          "type": "uint256"
        },
        {
          "internalType": "uint256",
          "name": "expiry",
          "type": "uint256"
        },
        {
          "internalType": "uint8",
          "name": "v",
          "type": "uint8"
        },
        {
          "internalType": "bytes32",
          "name": "r",
          "type": "bytes32"
        },
        {
          "internalType": "bytes32",
          "name": "s",
          "type": "bytes32"
        }
      ],
      "name": "delegateBySig",
      "outputs": [],
      "stateMutability": "nonpayable",
      "type": "function"
    },
    {
      "inputs": [
        {
          "internalType": "address",
          "name": "account",
          "type": "address"
        }
      ],
      "name": "delegates",
      "outputs": [
        {
          "internalType": "address",
          "name": "",
          "type": "address"
        }
      ],
      "stateMutability": "view",
      "type": "function"
    },
    {
      "inputs": [
        {
          "internalType": "uint256",
          "name": "blockNumber",
          "type": "uint256"
        }
      ],
      "name": "getPastTotalSupply",
      "outputs": [
        {
          "internalType": "uint256",
          "name": "",
          "type": "uint256"
        }
      ],
      "stateMutability": "view",
      "type": "function"
    },
    {
      "inputs": [
        {
          "internalType": "address",
          "name": "account",
          "type": "address"
        },
        {
          "internalType": "uint256",
          "name": "blockNumber",
          "type": "uint256"
        }
      ],
      "name": "getPastVotes",
      "outputs": [
        {
          "internalType": "uint256",
          "name": "",
          "type": "uint256"
        }
      ],
      "stateMutability": "view",
      "type": "function"
    },
    {
      "inputs": [
        {
          "internalType": "address",
          "name": "account",
          "type": "address"
        }
      ],
      "name": "getVotes",
      "outputs": [
        {
          "internalType": "uint256",
          "name": "",
          "type": "uint256"
        }
      ],
      "stateMutability": "view",
      "type": "function"
    },
    {
      "inputs": [
        {
          "internalType": "address",
          "name": "spender",
          "type": "address"
        },
        {
          "internalType": "uint256",
          "name": "addedValue",
          "type": "uint256"
        }
      ],
      "name": "increaseAllowance",
      "outputs": [
        {
          "internalType": "bool",
          "name": "",
          "type": "bool"
        }
      ],
      "stateMutability": "nonpayable",
      "type": "function"
    },
    {
      "inputs": [],
      "name": "name",
      "outputs": [
        {
          "internalType": "string",
          "name": "",
          "type": "string"
        }
      ],
      "stateMutability": "view",
      "type": "function"
    },
    {
      "inputs": [
        {
          "internalType": "address",
          "name": "owner",
          "type": "address"
        }
      ],
      "name": "nonces",
      "outputs": [
        {
          "internalType": "uint256",
          "name": "",
          "type": "uint256"
        }
      ],
      "stateMutability": "view",
      "type": "function"
    },
    {
      "inputs": [
        {
          "internalType": "address",
          "name": "account",
          "type": "address"
        }
      ],
      "name": "numCheckpoints",
      "outputs": [
        {
          "internalType": "uint32",
          "name": "",
          "type": "uint32"
        }
      ],
      "stateMutability": "view",
      "type": "function"
    },
    {
      "inputs": [
        {
          "internalType": "address",
          "name": "owner",
          "type": "address"
        },
        {
          "internalType": "address",
          "name": "spender",
          "type": "address"
        },
        {
          "internalType": "uint256",
          "name": "value",
          "type": "uint256"
        },
        {
          "internalType": "uint256",
          "name": "deadline",
          "type": "uint256"
        },
        {
          "internalType": "uint8",
          "name": "v",
          "type": "uint8"
        },
        {
          "internalType": "bytes32",
          "name": "r",
          "type": "bytes32"
        },
        {
          "internalType": "bytes32",
          "name": "s",
          "type": "bytes32"
        }
      ],
      "name": "permit",
      "outputs": [],
      "stateMutability": "nonpayable",
      "type": "function"
    },
    {
      "inputs": [],
      "name": "s_maxSupply",
      "outputs": [
        {
          "internalType": "uint256",
          "name": "",
          "type": "uint256"
        }
      ],
      "stateMutability": "view",
      "type": "function"
    },
    {
      "inputs": [
        {
          "internalType": "address",
          "name": "to",
          "type": "address"
        },
        {
          "internalType": "uint256",
          "name": "amount",
          "type": "uint256"
        }
      ],
      "name": "stake",
      "outputs": [],
      "stateMutability": "nonpayable",
      "type": "function"
    },
    {
      "inputs": [],
      "name": "symbol",
      "outputs": [
        {
          "internalType": "string",
          "name": "",
          "type": "string"
        }
      ],
      "stateMutability": "view",
      "type": "function"
    },
    {
      "inputs": [],
      "name": "totalSupply",
      "outputs": [
        {
          "internalType": "uint256",
          "name": "",
          "type": "uint256"
        }
      ],
      "stateMutability": "view",
      "type": "function"
    },
    {
      "inputs": [
        {
          "internalType": "address",
          "name": "to",
          "type": "address"
        },
        {
          "internalType": "uint256",
          "name": "amount",
          "type": "uint256"
        }
      ],
      "name": "transfer",
      "outputs": [
        {
          "internalType": "bool",
          "name": "",
          "type": "bool"
        }
      ],
      "stateMutability": "nonpayable",
      "type": "function"
    },
    {
      "inputs": [
        {
          "internalType": "address",
          "name": "from",
          "type": "address"
        },
        {
          "internalType": "address",
          "name": "to",
          "type": "address"
        },
        {
          "internalType": "uint256",
          "name": "amount",
          "type": "uint256"
        }
      ],
      "name": "transferFrom",
      "outputs": [
        {
          "internalType": "bool",
          "name": "",
          "type": "bool"
        }
      ],
      "stateMutability": "nonpayable",
      "type": "function"
    }
  ],
  "bytecode": "0x61014060405269d3c21bcecceda1000000600a553480156200002057600080fd5b506040518060400160405280600c81526020016b22b632b1ba3930aa37b5b2b760a11b81525080604051806040016040528060018152602001603160f81b8152506040518060400160405280600c81526020016b22b632b1ba3930aa37b5b2b760a11b81525060405180604001604052806004815260200163115310d560e21b8152508160039080519060200190620000bb9291906200075c565b508051620000d19060049060208401906200075c565b5050825160208085019190912083518483012060e08290526101008190524660a0818152604080517f8b73c3c69bb8fe3d512ecc4cf759cc79239f7b179b0ffacaa9a75d522b39400f81880181905281830187905260608201869052608082019490945230818401528151808203909301835260c0019052805194019390932091935091906080523060c052610120525050600a546200018493503392506200017e91506002906200080e565b620001a0565b6200019a306002600a546200017e91906200080e565b620008a3565b620001b78282620001bb60201b62000a501760201c565b5050565b620001d282826200027260201b62000ae01760201c565b6001600160e01b03620001e66200033f8216565b1115620002535760405162461bcd60e51b815260206004820152603060248201527f4552433230566f7465733a20746f74616c20737570706c79207269736b73206f60448201526f766572666c6f77696e6720766f74657360801b60648201526084015b60405180910390fd5b6200026c600962000ba76200034560201b17836200035a565b50505050565b6001600160a01b038216620002ca5760405162461bcd60e51b815260206004820152601f60248201527f45524332303a206d696e7420746f20746865207a65726f20616464726573730060448201526064016200024a565b8060026000828254620002de919062000831565b90915550506001600160a01b038216600081815260208181526040808320805486019055518481527fddf252ad1be2c89b69c2b068fc378daa952ba7f163c4a11628f55a4df523b3ef910160405180910390a3620001b760008383620004f1565b60025490565b600062000353828462000831565b9392505050565b82546000908190818115620003ba5762000389876200037b6001856200084c565b600091825260209091200190565b60408051808201909152905463ffffffff8116825264010000000090046001600160e01b03166020820152620003cf565b60408051808201909152600080825260208201525b905080602001516001600160e01b03169350620003ed84868860201c565b9250600082118015620004065750805163ffffffff1643145b156200045d5762000422836200050960201b62000bb31760201c565b62000434886200037b6001866200084c565b80546001600160e01b03929092166401000000000263ffffffff909216919091179055620004e2565b8660405180604001604052806200047f436200057860201b62000c201760201c565b63ffffffff168152602001620004a0866200050960201b62000bb31760201c565b6001600160e01b0390811690915282546001810184556000938452602093849020835194909301519091166401000000000263ffffffff909316929092179101555b5050935093915050565b505050565b620004ec838383620005df60201b62000c851760201c565b60006001600160e01b03821115620005745760405162461bcd60e51b815260206004820152602760248201527f53616665436173743a2076616c756520646f65736e27742066697420696e20326044820152663234206269747360c81b60648201526084016200024a565b5090565b600063ffffffff821115620005745760405162461bcd60e51b815260206004820152602660248201527f53616665436173743a2076616c756520646f65736e27742066697420696e203360448201526532206269747360d01b60648201526084016200024a565b620005f7838383620004ec60201b62000cb71760201c565b6001600160a01b03838116600090815260076020526040808220548584168352912054620004ec92918216911683818314801590620006365750600081115b15620004ec576001600160a01b03831615620006c3576001600160a01b0383166000908152600860209081526040822082916200068091906200074e901b62000cbc17856200035a565b91509150846001600160a01b0316600080516020620025ef8339815191528383604051620006b8929190918252602082015260400190565b60405180910390a250505b6001600160a01b03821615620004ec576001600160a01b03821660009081526008602090815260408220829162000707919062000345901b62000ba717856200035a565b91509150836001600160a01b0316600080516020620025ef83398151915283836040516200073f929190918252602082015260400190565b60405180910390a25050505050565b60006200035382846200084c565b8280546200076a9062000866565b90600052602060002090601f0160209004810192826200078e5760008555620007d9565b82601f10620007a957805160ff1916838001178555620007d9565b82800160010185558215620007d9579182015b82811115620007d9578251825591602001919060010190620007bc565b50620005749291505b80821115620005745760008155600101620007e2565b634e487b7160e01b600052601160045260246000fd5b6000826200082c57634e487b7160e01b600052601260045260246000fd5b500490565b60008219821115620008475762000847620007f8565b500190565b600082821015620008615762000861620007f8565b500390565b600181811c908216806200087b57607f821691505b602082108114156200089d57634e487b7160e01b600052602260045260246000fd5b50919050565b60805160a05160c05160e0516101005161012051611cfc620008f36000396000611094015260006110e3015260006110be01526000611017015260006110410152600061106b0152611cfc6000f3fe608060405234801561001057600080fd5b50600436106101585760003560e01c806370a08231116100c3578063a9059cbb1161007c578063a9059cbb14610307578063adc9772e1461031a578063c3cda5201461032d578063d505accf14610340578063dd62ed3e14610353578063f1127ed81461036657600080fd5b806370a082311461028a5780637ecebe00146102b35780638e539e8c146102c657806395d89b41146102d95780639ab24eb0146102e1578063a457c2d7146102f457600080fd5b8063395093511161011557806339509351146101da5780633a46b1a8146101ed578063587cde1e146102005780635c19a95c146102445780635d641847146102595780636fcfff451461026257600080fd5b806306fdde031461015d578063095ea7b31461017b57806318160ddd1461019e57806323b872dd146101b0578063313ce567146101c35780633644e515146101d2575b600080fd5b6101656103a3565b6040516101729190611997565b60405180910390f35b61018e610189366004611a08565b610435565b6040519015158152602001610172565b6002545b604051908152602001610172565b61018e6101be366004611a32565b61044d565b60405160128152602001610172565b6101a2610471565b61018e6101e8366004611a08565b610480565b6101a26101fb366004611a08565b6104a2565b61022c61020e366004611a6e565b6001600160a01b039081166000908152600760205260409020541690565b6040516001600160a01b039091168152602001610172565b610257610252366004611a6e565b610521565b005b6101a2600a5481565b610275610270366004611a6e565b61052e565b60405163ffffffff9091168152602001610172565b6101a2610298366004611a6e565b6001600160a01b031660009081526020819052604090205490565b6101a26102c1366004611a6e565b610556565b6101a26102d4366004611a89565b610574565b6101656105d0565b6101a26102ef366004611a6e565b6105df565b61018e610302366004611a08565b610666565b61018e610315366004611a08565b6106e1565b610257610328366004611a08565b6106ef565b61025761033b366004611ab3565b610707565b61025761034e366004611b0b565b61083d565b6101a2610361366004611b75565b6109a1565b610379610374366004611ba8565b6109cc565b60408051825163ffffffff1681526020928301516001600160e01b03169281019290925201610172565b6060600380546103b290611be8565b80601f01602080910402602001604051908101604052809291908181526020018280546103de90611be8565b801561042b5780601f106104005761010080835404028352916020019161042b565b820191906000526020600020905b81548152906001019060200180831161040e57829003601f168201915b5050505050905090565b600033610443818585610cc8565b5060019392505050565b60003361045b858285610dec565b610466858585610e60565b506001949350505050565b600061047b61100a565b905090565b60003361044381858561049383836109a1565b61049d9190611c33565b610cc8565b60004382106104f85760405162461bcd60e51b815260206004820152601f60248201527f4552433230566f7465733a20626c6f636b206e6f7420796574206d696e65640060448201526064015b60405180910390fd5b6001600160a01b038316600090815260086020526040902061051a9083611131565b9392505050565b61052b3382611228565b50565b6001600160a01b03811660009081526008602052604081205461055090610c20565b92915050565b6001600160a01b038116600090815260056020526040812054610550565b60004382106105c55760405162461bcd60e51b815260206004820152601f60248201527f4552433230566f7465733a20626c6f636b206e6f7420796574206d696e65640060448201526064016104ef565b610550600983611131565b6060600480546103b290611be8565b6001600160a01b0381166000908152600860205260408120548015610653576001600160a01b0383166000908152600860205260409020610621600183611c4b565b8154811061063157610631611c62565b60009182526020909120015464010000000090046001600160e01b0316610656565b60005b6001600160e01b03169392505050565b6000338161067482866109a1565b9050838110156106d45760405162461bcd60e51b815260206004820152602560248201527f45524332303a2064656372656173656420616c6c6f77616e63652062656c6f77604482015264207a65726f60d81b60648201526084016104ef565b6104668286868403610cc8565b600033610443818585610e60565b6106fa308383610e60565b61070382610521565b5050565b834211156107575760405162461bcd60e51b815260206004820152601d60248201527f4552433230566f7465733a207369676e6174757265206578706972656400000060448201526064016104ef565b604080517fe48329057bfd03d55e49b547132e39cffd9c1820ad7b9d4c5307691425d15adf60208201526001600160a01b0388169181019190915260608101869052608081018590526000906107d1906107c99060a001604051602081830303815290604052805190602001206112a1565b8585856112ef565b90506107dc81611317565b861461082a5760405162461bcd60e51b815260206004820152601960248201527f4552433230566f7465733a20696e76616c6964206e6f6e63650000000000000060448201526064016104ef565b6108348188611228565b50505050505050565b8342111561088d5760405162461bcd60e51b815260206004820152601d60248201527f45524332305065726d69743a206578706972656420646561646c696e6500000060448201526064016104ef565b60007f6e71edae12b1b97f4d1f60370fef10105fa2faae0126114a169c64845d6126c98888886108bc8c611317565b6040805160208101969096526001600160a01b0394851690860152929091166060840152608083015260a082015260c0810186905260e0016040516020818303038152906040528051906020012090506000610917826112a1565b90506000610927828787876112ef565b9050896001600160a01b0316816001600160a01b03161461098a5760405162461bcd60e51b815260206004820152601e60248201527f45524332305065726d69743a20696e76616c6964207369676e6174757265000060448201526064016104ef565b6109958a8a8a610cc8565b50505050505050505050565b6001600160a01b03918216600090815260016020908152604080832093909416825291909152205490565b60408051808201909152600080825260208201526001600160a01b0383166000908152600860205260409020805463ffffffff8416908110610a1057610a10611c62565b60009182526020918290206040805180820190915291015463ffffffff8116825264010000000090046001600160e01b0316918101919091529392505050565b610a5a8282610ae0565b6002546001600160e01b031015610acc5760405162461bcd60e51b815260206004820152603060248201527f4552433230566f7465733a20746f74616c20737570706c79207269736b73206f60448201526f766572666c6f77696e6720766f74657360801b60648201526084016104ef565b610ada6009610ba78361133f565b50505050565b6001600160a01b038216610b365760405162461bcd60e51b815260206004820152601f60248201527f45524332303a206d696e7420746f20746865207a65726f20616464726573730060448201526064016104ef565b8060026000828254610b489190611c33565b90915550506001600160a01b038216600081815260208181526040808320805486019055518481527fddf252ad1be2c89b69c2b068fc378daa952ba7f163c4a11628f55a4df523b3ef910160405180910390a361070360008383611493565b600061051a8284611c33565b60006001600160e01b03821115610c1c5760405162461bcd60e51b815260206004820152602760248201527f53616665436173743a2076616c756520646f65736e27742066697420696e20326044820152663234206269747360c81b60648201526084016104ef565b5090565b600063ffffffff821115610c1c5760405162461bcd60e51b815260206004820152602660248201527f53616665436173743a2076616c756520646f65736e27742066697420696e203360448201526532206269747360d01b60648201526084016104ef565b6001600160a01b03838116600090815260076020526040808220548584168352912054610cb79291821691168361149e565b505050565b600061051a8284611c4b565b6001600160a01b038316610d2a5760405162461bcd60e51b8152602060048201526024808201527f45524332303a20617070726f76652066726f6d20746865207a65726f206164646044820152637265737360e01b60648201526084016104ef565b6001600160a01b038216610d8b5760405162461bcd60e51b815260206004820152602260248201527f45524332303a20617070726f766520746f20746865207a65726f206164647265604482015261737360f01b60648201526084016104ef565b6001600160a01b0383811660008181526001602090815260408083209487168084529482529182902085905590518481527f8c5be1e5ebec7d5bd14f71427d1e84f3dd0314c0f7b2291e5b200ac8c7c3b925910160405180910390a3505050565b6000610df884846109a1565b90506000198114610ada5781811015610e535760405162461bcd60e51b815260206004820152601d60248201527f45524332303a20696e73756666696369656e7420616c6c6f77616e636500000060448201526064016104ef565b610ada8484848403610cc8565b6001600160a01b038316610ec45760405162461bcd60e51b815260206004820152602560248201527f45524332303a207472616e736665722066726f6d20746865207a65726f206164604482015264647265737360d81b60648201526084016104ef565b6001600160a01b038216610f265760405162461bcd60e51b815260206004820152602360248201527f45524332303a207472616e7366657220746f20746865207a65726f206164647260448201526265737360e81b60648201526084016104ef565b6001600160a01b03831660009081526020819052604090205481811015610f9e5760405162461bcd60e51b815260206004820152602660248201527f45524332303a207472616e7366657220616d6f756e7420657863656564732062604482015265616c616e636560d01b60648201526084016104ef565b6001600160a01b03848116600081815260208181526040808320878703905593871680835291849020805487019055925185815290927fddf252ad1be2c89b69c2b068fc378daa952ba7f163c4a11628f55a4df523b3ef910160405180910390a3610ada848484611493565b6000306001600160a01b037f00000000000000000000000000000000000000000000000000000000000000001614801561106357507f000000000000000000000000000000000000000000000000000000000000000046145b1561108d57507f000000000000000000000000000000000000000000000000000000000000000090565b50604080517f00000000000000000000000000000000000000000000000000000000000000006020808301919091527f0000000000000000000000000000000000000000000000000000000000000000828401527f000000000000000000000000000000000000000000000000000000000000000060608301524660808301523060a0808401919091528351808403909101815260c0909201909252805191012090565b81546000908181600581111561118b57600061114c846115db565b6111569085611c4b565b600088815260209020909150869082015463ffffffff16111561117b57809150611189565b611186816001611c33565b92505b505b808210156111d857600061119f83836116c0565b600088815260209020909150869082015463ffffffff1611156111c4578091506111d2565b6111cf816001611c33565b92505b5061118b565b8015611212576111fb866111ed600184611c4b565b600091825260209091200190565b5464010000000090046001600160e01b0316611215565b60005b6001600160e01b03169695505050505050565b6001600160a01b038281166000818152600760208181526040808420805485845282862054949093528787166001600160a01b03198416811790915590519190951694919391928592917f3134e8a2e6d97e929a7e54011ea5485d7d196dd5f0ba4d4ef95803e8e3fc257f9190a4610ada82848361149e565b60006105506112ae61100a565b8360405161190160f01b6020820152602281018390526042810182905260009060620160405160208183030381529060405280519060200120905092915050565b6000806000611300878787876116db565b9150915061130d8161179f565b5095945050505050565b6001600160a01b03811660009081526005602052604090208054600181018255905b50919050565b8254600090819081811561138c5761135c876111ed600185611c4b565b60408051808201909152905463ffffffff8116825264010000000090046001600160e01b031660208201526113a1565b60408051808201909152600080825260208201525b905080602001516001600160e01b031693506113c184868863ffffffff16565b92506000821180156113d95750805163ffffffff1643145b1561141e576113e783610bb3565b6113f6886111ed600186611c4b565b80546001600160e01b03929092166401000000000263ffffffff909216919091179055611489565b86604051806040016040528061143343610c20565b63ffffffff16815260200161144786610bb3565b6001600160e01b0390811690915282546001810184556000938452602093849020835194909301519091166401000000000263ffffffff909316929092179101555b5050935093915050565b610cb7838383610c85565b816001600160a01b0316836001600160a01b0316141580156114c05750600081115b15610cb7576001600160a01b0383161561154e576001600160a01b038316600090815260086020526040812081906114fb90610cbc8561133f565b91509150846001600160a01b03167fdec2bacdd2f05b59de34da9b523dff8be42e5e38e818c82fdb0bae774387a7248383604051611543929190918252602082015260400190565b60405180910390a250505b6001600160a01b03821615610cb7576001600160a01b0382166000908152600860205260408120819061158490610ba78561133f565b91509150836001600160a01b03167fdec2bacdd2f05b59de34da9b523dff8be42e5e38e818c82fdb0bae774387a72483836040516115cc929190918252602082015260400190565b60405180910390a25050505050565b6000816115ea57506000919050565b600060016115f7846118ed565b901c6001901b9050600181848161161057611610611c78565b048201901c9050600181848161162857611628611c78565b048201901c9050600181848161164057611640611c78565b048201901c9050600181848161165857611658611c78565b048201901c9050600181848161167057611670611c78565b048201901c9050600181848161168857611688611c78565b048201901c905060018184816116a0576116a0611c78565b048201901c905061051a818285816116ba576116ba611c78565b04611981565b60006116cf6002848418611c8e565b61051a90848416611c33565b6000807f7fffffffffffffffffffffffffffffff5d576e7357a4501ddfe92f46681b20a08311156117125750600090506003611796565b6040805160008082526020820180845289905260ff881692820192909252606081018690526080810185905260019060a0016020604051602081039080840390855afa158015611766573d6000803e3d6000fd5b5050604051601f1901519150506001600160a01b03811661178f57600060019250925050611796565b9150600090505b94509492505050565b60008160048111156117b3576117b3611cb0565b14156117bc5750565b60018160048111156117d0576117d0611cb0565b141561181e5760405162461bcd60e51b815260206004820152601860248201527f45434453413a20696e76616c6964207369676e6174757265000000000000000060448201526064016104ef565b600281600481111561183257611832611cb0565b14156118805760405162461bcd60e51b815260206004820152601f60248201527f45434453413a20696e76616c6964207369676e6174757265206c656e6774680060448201526064016104ef565b600381600481111561189457611894611cb0565b141561052b5760405162461bcd60e51b815260206004820152602260248201527f45434453413a20696e76616c6964207369676e6174757265202773272076616c604482015261756560f01b60648201526084016104ef565b600080608083901c1561190257608092831c92015b604083901c1561191457604092831c92015b602083901c1561192657602092831c92015b601083901c1561193857601092831c92015b600883901c1561194a57600892831c92015b600483901c1561195c57600492831c92015b600283901c1561196e57600292831c92015b600183901c156105505760010192915050565b6000818310611990578161051a565b5090919050565b600060208083528351808285015260005b818110156119c4578581018301518582016040015282016119a8565b818111156119d6576000604083870101525b50601f01601f1916929092016040019392505050565b80356001600160a01b0381168114611a0357600080fd5b919050565b60008060408385031215611a1b57600080fd5b611a24836119ec565b946020939093013593505050565b600080600060608486031215611a4757600080fd5b611a50846119ec565b9250611a5e602085016119ec565b9150604084013590509250925092565b600060208284031215611a8057600080fd5b61051a826119ec565b600060208284031215611a9b57600080fd5b5035919050565b803560ff81168114611a0357600080fd5b60008060008060008060c08789031215611acc57600080fd5b611ad5876119ec565b95506020870135945060408701359350611af160608801611aa2565b92506080870135915060a087013590509295509295509295565b600080600080600080600060e0888a031215611b2657600080fd5b611b2f886119ec565b9650611b3d602089016119ec565b95506040880135945060608801359350611b5960808901611aa2565b925060a0880135915060c0880135905092959891949750929550565b60008060408385031215611b8857600080fd5b611b91836119ec565b9150611b9f602084016119ec565b90509250929050565b60008060408385031215611bbb57600080fd5b611bc4836119ec565b9150602083013563ffffffff81168114611bdd57600080fd5b809150509250929050565b600181811c90821680611bfc57607f821691505b6020821081141561133957634e487b7160e01b600052602260045260246000fd5b634e487b7160e01b600052601160045260246000fd5b60008219821115611c4657611c46611c1d565b500190565b600082821015611c5d57611c5d611c1d565b500390565b634e487b7160e01b600052603260045260246000fd5b634e487b7160e01b600052601260045260246000fd5b600082611cab57634e487b7160e01b600052601260045260246000fd5b500490565b634e487b7160e01b600052602160045260246000fdfea2646970667358221220a09914ace8e853e4c69993ef5028d364fe0bd42b06e7e87ea8d6754ec03d569964736f6c63430008090033dec2bacdd2f05b59de34da9b523dff8be42e5e38e818c82fdb0bae774387a724",
  "linkReferences": {},
  "deployedLinkReferences": {}
}