{
  "_format": "hh-sol-artifact-1",
  "contractName": "StationRegistry",
  "sourceName": "contracts/StationRegistry.sol",
  "abi": [
    {
      "inputs": [
        {
          "internalType": "uint256",
          "name": "_listingFee",
          "type": "uint256"
        }
      ],
      "stateMutability": "nonpayable",
      "type": "constructor"
    },
    {
      "anonymous": false,
      "inputs": [
        {
          "indexed": false,
          "internalType": "address",
          "name": "owner",
          "type": "address"
        },
        {
          "indexed": false,
          "internalType": "string",
          "name": "metadata",
          "type": "string"
        },
        {
          "indexed": false,
          "internalType": "uint256",
          "name": "stationId",
          "type": "uint256"
        },
        {
          "indexed": false,
          "internalType": "uint256",
          "name": "chargingFee",
          "type": "uint256"
        }
      ],
      "name": "ChargingStationAdded",
      "type": "event"
    },
    {
      "anonymous": false,
      "inputs": [
        {
          "indexed": false,
          "internalType": "uint256",
          "name": "stationId",
          "type": "uint256"
        }
      ],
      "name": "ChargingStationRemoved",
      "type": "event"
    },
    {
      "anonymous": false,
      "inputs": [
        {
          "indexed": true,
          "internalType": "address",
          "name": "previousOwner",
          "type": "address"
        },
        {
          "indexed": true,
          "internalType": "address",
          "name": "newOwner",
          "type": "address"
        }
      ],
      "name": "OwnershipTransferred",
      "type": "event"
    },
    {
      "inputs": [],
      "name": "_stationIdCounter",
      "outputs": [
        {
          "internalType": "uint256",
          "name": "_value",
          "type": "uint256"
        }
      ],
      "stateMutability": "view",
      "type": "function"
    },
    {
      "inputs": [
        {
          "internalType": "address",
          "name": "_owner",
          "type": "address"
        },
        {
          "internalType": "string",
          "name": "_metadata",
          "type": "string"
        },
        {
          "internalType": "uint256",
          "name": "_chargingFee",
          "type": "uint256"
        }
      ],
      "name": "addChargingStation",
      "outputs": [
        {
          "internalType": "uint256",
          "name": "",
          "type": "uint256"
        }
      ],
      "stateMutability": "payable",
      "type": "function"
    },
    {
      "inputs": [
        {
          "internalType": "uint256",
          "name": "",
          "type": "uint256"
        }
      ],
      "name": "chargingStationsRegistry",
      "outputs": [
        {
          "internalType": "address",
          "name": "owner",
          "type": "address"
        },
        {
          "internalType": "string",
          "name": "metadata",
          "type": "string"
        },
        {
          "internalType": "uint256",
          "name": "stationId",
          "type": "uint256"
        },
        {
          "internalType": "uint256",
          "name": "chargingFee",
          "type": "uint256"
        }
      ],
      "stateMutability": "view",
      "type": "function"
    },
    {
      "inputs": [],
      "name": "electraToken",
      "outputs": [
        {
          "internalType": "contract ElectraToken",
          "name": "",
          "type": "address"
        }
      ],
      "stateMutability": "view",
      "type": "function"
    },
    {
      "inputs": [
        {
          "internalType": "uint256",
          "name": "_stationId",
          "type": "uint256"
        }
      ],
      "name": "getChargingFee",
      "outputs": [
        {
          "internalType": "uint256",
          "name": "",
          "type": "uint256"
        }
      ],
      "stateMutability": "view",
      "type": "function"
    },
    {
      "inputs": [
        {
          "internalType": "uint256",
          "name": "_stationId",
          "type": "uint256"
        }
      ],
      "name": "getStation",
      "outputs": [
        {
          "components": [
            {
              "internalType": "address",
              "name": "owner",
              "type": "address"
            },
            {
              "internalType": "string",
              "name": "metadata",
              "type": "string"
            },
            {
              "internalType": "uint256",
              "name": "stationId",
              "type": "uint256"
            },
            {
              "internalType": "uint256",
              "name": "chargingFee",
              "type": "uint256"
            }
          ],
          "internalType": "struct StationRegistry.ChargingStation",
          "name": "",
          "type": "tuple"
        }
      ],
      "stateMutability": "view",
      "type": "function"
    },
    {
      "inputs": [
        {
          "internalType": "uint256",
          "name": "_stationId",
          "type": "uint256"
        }
      ],
      "name": "getStationOwner",
      "outputs": [
        {
          "internalType": "address",
          "name": "",
          "type": "address"
        }
      ],
      "stateMutability": "view",
      "type": "function"
    },
    {
      "inputs": [],
      "name": "listingFee",
      "outputs": [
        {
          "internalType": "uint256",
          "name": "",
          "type": "uint256"
        }
      ],
      "stateMutability": "view",
      "type": "function"
    },
    {
      "inputs": [],
      "name": "owner",
      "outputs": [
        {
          "internalType": "address",
          "name": "",
          "type": "address"
        }
      ],
      "stateMutability": "view",
      "type": "function"
    },
    {
      "inputs": [
        {
          "internalType": "uint256",
          "name": "_stationId",
          "type": "uint256"
        }
      ],
      "name": "removeChargingStation",
      "outputs": [],
      "stateMutability": "nonpayable",
      "type": "function"
    },
    {
      "inputs": [],
      "name": "renounceOwnership",
      "outputs": [],
      "stateMutability": "nonpayable",
      "type": "function"
    },
    {
      "inputs": [
        {
          "internalType": "address",
          "name": "newOwner",
          "type": "address"
        }
      ],
      "name": "transferOwnership",
      "outputs": [],
      "stateMutability": "nonpayable",
      "type": "function"
    }
  ],
  "bytecode": "0x608060405234801561001057600080fd5b50604051610b3c380380610b3c83398101604081905261002f91610090565b61003833610040565b6003556100a9565b600080546001600160a01b038381166001600160a01b0319831681178455604051919092169283917f8be0079c531659141344cd1fd0a4f28419497f9722a3daafe3b4186f6b6457e09190a35050565b6000602082840312156100a257600080fd5b5051919050565b610a84806100b86000396000f3fe6080604052600436106100a65760003560e01c806383e0116e1161006457806383e0116e146101875780638da5cb5b146101b7578063aa21cc20146101d5578063c78f90c81461020b578063eae8b92d14610222578063f2fde38b1461025257600080fd5b8062ea2f5a146100ab578063106e054d146100cd5780633ceb918614610103578063682f9286146101245780636a1b7ecc1461015c578063715018a614610172575b600080fd5b3480156100b757600080fd5b506100cb6100c6366004610809565b610272565b005b3480156100d957600080fd5b506100ed6100e8366004610809565b61034c565b6040516100fa919061086f565b60405180910390f35b6101166101113660046108ef565b610459565b6040519081526020016100fa565b34801561013057600080fd5b50600154610144906001600160a01b031681565b6040516001600160a01b0390911681526020016100fa565b34801561016857600080fd5b5061011660035481565b34801561017e57600080fd5b506100cb610544565b34801561019357600080fd5b506101a76101a2366004610809565b610558565b6040516100fa94939291906109ba565b3480156101c357600080fd5b506000546001600160a01b0316610144565b3480156101e157600080fd5b506101446101f0366004610809565b6000908152600460205260409020546001600160a01b031690565b34801561021757600080fd5b506002546101169081565b34801561022e57600080fd5b5061011661023d366004610809565b60009081526004602052604090206003015490565b34801561025e57600080fd5b506100cb61026d3660046109f1565b610613565b61027a61068c565b6000818152600460205260409020546001600160a01b03166102dc5760405162461bcd60e51b815260206004820152601660248201527514dd185d1a5bdb88191bd95cc81b9bdd08195e1a5cdd60521b60448201526064015b60405180910390fd5b600081815260046020526040812080546001600160a01b0319168155906103066001830182610736565b506000600282018190556003909101556040518181527f1d60f9a52a1a1a116daaf72bf44a8fde3be0d6b39a739d0100429049c683c1a09060200160405180910390a150565b610380604051806080016040528060006001600160a01b031681526020016060815260200160008152602001600081525090565b60008281526004602090815260409182902082516080810190935280546001600160a01b0316835260018101805491928401916103bc90610a13565b80601f01602080910402602001604051908101604052809291908181526020018280546103e890610a13565b80156104355780601f1061040a57610100808354040283529160200191610435565b820191906000526020600020905b81548152906001019060200180831161041857829003601f168201915b50505050508152602001600282015481526020016003820154815250509050919050565b600061046361068c565b610471600280546001019055565b600061047c60025490565b604080516080810182526001600160a01b03888116825260208083018981528385018690526060840189905260008681526004835294909420835181546001600160a01b031916931692909217825592518051949550919390926104e7926001850192910190610770565b5060408201518160020155606082015181600301559050507ff32c2b6b37a999a32e6c680e1c0bba45feae104f37e50297bbd36a801bfab5e58585838660405161053494939291906109ba565b60405180910390a1949350505050565b61054c61068c565b61055660006106e6565b565b600460205260009081526040902080546001820180546001600160a01b03909216929161058490610a13565b80601f01602080910402602001604051908101604052809291908181526020018280546105b090610a13565b80156105fd5780601f106105d2576101008083540402835291602001916105fd565b820191906000526020600020905b8154815290600101906020018083116105e057829003601f168201915b5050505050908060020154908060030154905084565b61061b61068c565b6001600160a01b0381166106805760405162461bcd60e51b815260206004820152602660248201527f4f776e61626c653a206e6577206f776e657220697320746865207a65726f206160448201526564647265737360d01b60648201526084016102d3565b610689816106e6565b50565b6000546001600160a01b031633146105565760405162461bcd60e51b815260206004820181905260248201527f4f776e61626c653a2063616c6c6572206973206e6f7420746865206f776e657260448201526064016102d3565b600080546001600160a01b038381166001600160a01b0319831681178455604051919092169283917f8be0079c531659141344cd1fd0a4f28419497f9722a3daafe3b4186f6b6457e09190a35050565b50805461074290610a13565b6000825580601f10610752575050565b601f01602090049060005260206000209081019061068991906107f4565b82805461077c90610a13565b90600052602060002090601f01602090048101928261079e57600085556107e4565b82601f106107b757805160ff19168380011785556107e4565b828001600101855582156107e4579182015b828111156107e45782518255916020019190600101906107c9565b506107f09291506107f4565b5090565b5b808211156107f057600081556001016107f5565b60006020828403121561081b57600080fd5b5035919050565b6000815180845260005b818110156108485760208185018101518683018201520161082c565b8181111561085a576000602083870101525b50601f01601f19169290920160200192915050565b602080825282516001600160a01b0316828201528201516080604083015260009061089d60a0840182610822565b905060408401516060840152606084015160808401528091505092915050565b80356001600160a01b03811681146108d457600080fd5b919050565b634e487b7160e01b600052604160045260246000fd5b60008060006060848603121561090457600080fd5b61090d846108bd565b9250602084013567ffffffffffffffff8082111561092a57600080fd5b818601915086601f83011261093e57600080fd5b813581811115610950576109506108d9565b604051601f8201601f19908116603f01168101908382118183101715610978576109786108d9565b8160405282815289602084870101111561099157600080fd5b826020860160208301376000602084830101528096505050505050604084013590509250925092565b6001600160a01b03851681526080602082018190526000906109de90830186610822565b6040830194909452506060015292915050565b600060208284031215610a0357600080fd5b610a0c826108bd565b9392505050565b600181811c90821680610a2757607f821691505b60208210811415610a4857634e487b7160e01b600052602260045260246000fd5b5091905056fea2646970667358221220addcaeef6e5079376458a9f43b9fcb681fd0d81c9b33477245b24eed6643843764736f6c63430008090033",
  "linkReferences": {},
  "deployedLinkReferences": {}
}